:100000000C946E010C9496010C9496010C9496013C
:100010000C9496010C9496010C9496010C94960104
:100020000C9496010C9496010C9496010C949601F4
:100030000C9496010C9496010C9496010C949601E4
:100040000C94DA040C9496010C944A050C94240543
:100050000C9496010C9496010C9496010C949601C4
:100060000C9496010C9496014276FC30825A825A86
:10007000FC3042768A7DF9184276FC306E6A1D4764
:10008000825A825A1D476E6AFC304276F9188A7D80
:10009000627F8C0C8A7DF9187D7A28254276FC30A7
:1000A000E370573C6E6A1D47F2623451825A825A9D
:1000B0003451F2621D476E6A573CE370FC30427661
:1000C00028257D7AF9188A7D8C0C627F38073C0FD1
:1000D0003A173E1F39273D2F3B373003340B32137D
:1000E000361B3123352B28052C0D2A152E1D2925CD
:1000F000200124092211261918061C0E1A161002B6
:10010000140A08040000080D1013151618191B1CFA
:100110001D1E1E1F202121222323242425252626BF
:100120002627272828282929292A2A2A2B2B2B2B3E
:100130002C2C2C2C2D2D2D2D2E2E2E2E2E2F2F2FE8
:100140002F2F3030303030313131313131323232A5
:10015000323232323333333333333334343434346E
:10016000343434353535353535353535363636363E
:100170003636363636373737373737373737373813
:1001800038383838383838383838393939393939E9
:100190003939393939393A3A3A3A3A3A3A3A3A3AC5
:1001A0003A3A3A3B3B3B3B3B3B3B3B3B3B3B3B3BA2
:1001B0003B3B3C3C3C3C3C3C3C3C3C3C3C3C3C3C81
:1001C0003C3C3D3D3D3D3D3D3D3D3D3D3D3D3D3D61
:1001D0003D3D3D3E3E3E3E3E3E3E3E3E3E3E3E3E42
:1001E0003E3E3E3E3E3F3F3F3F3F3F3F3F3F3F3F24
:1001F0003F3F3F3F3F3F3F3F3F3F40404040404009
:1002000040404040000051004501D8020705CB079F
:100210001F0BF90E50131918471DCD229E28AB2E27
:10022000E334383B9841F5473E4E6254535A0060E0
:100230005C65596AEA6E04739C76A979247C057E14
:10024000497FEC7FEC7F497F057E247CA9799C76F1
:100250000473EA6E596A5C650060535A62543E4EFC
:10026000F5479841383BE334AB2E9E28CD22471DFD
:1002700019185013F90E1F0BCB070705D8024501BB
:100280005100000053746172740000000008000205
:10029000010000030407000000000000000000004F
:1002A0000000250028002B0000000000240027008B
:1002B0002A000404040404040404020202020202E8
:1002C000030303030303010204081020408001021A
:1002D00004081020010204081020AF0911241FBED9
:1002E000CFEFD8E0DEBFCDBF22E0A2E4B1E001C095
:1002F0001D92A03BB207E1F711E0A0E0B1E0E4E815
:10030000F8E102C005900D92A234B107D9F711E0CF
:10031000CEE6D1E004C02197FE010E94480ACD3606
:10032000D107C9F70E947C050C94400C0C94000086
:1003300090E0FC01EA53FD4F24918E549D4FFC0147
:100340008491882399F090E0880F991FFC01E8556B
:10035000FD4FA591B491FC01E256FD4F859194911A
:100360008FB7F894EC91E22BEC938FBF089590E057
:10037000FC01E657FD4F2491FC01EA53FD4F3491F7
:10038000FC01EE54FD4FE491EE23C9F0222339F035
:10039000233001F1A8F4213019F1223029F1F0E0E5
:1003A000EE0FFF1FE256FD4FA591B4918FB7F89461
:1003B000EC91611126C030953E233C938FBF089588
:1003C0002730A9F02830C9F0243049F78091800007
:1003D0008F7D03C0809180008F7780938000DFCF76
:1003E00084B58F7784BDDBCF84B58F7DFBCF8091C3
:1003F000B0008F778093B000D2CF8091B0008F7D16
:10040000F9CF3E2BDACF3FB7F89480910B02909151
:100410000C02A0910D02B0910E0226B5A89B05C05A
:100420002F3F19F00196A11DB11D3FBFBA2FA92F73
:10043000982F8827BC01CD01620F711D811D911D70
:1004400042E0660F771F881F991F4A95D1F70895DC
:100450008F929F92AF92BF92CF92DF92EF92FF92D4
:100460004B015C010E9403026B017C010E940302AC
:100470006C197D098E099F09683E734081059105BD
:10048000A8F321E0821A9108A108B10888EEC80EED
:1004900083E0D81EE11CF11C81149104A104B10475
:1004A00029F7FF90EF90DF90CF90BF90AF909F9093
:1004B0008F900895AF92BF92CF92DF92EF92FF920A
:1004C0000F931F93CF93DF936C017B018B01040F7C
:1004D000151FEB015E01AE18BF08C017D10759F018
:1004E0006991D601ED91FC910190F081E02DC6015A
:1004F0000995892B79F7C501DF91CF911F910F9154
:10050000FF90EF90DF90CF90BF90AF90089542E0C2
:1005100050E068E171E08FE092E00C945A02FC0137
:10052000538D448D252F30E0842F90E0821B930B58
:10053000541710F0CF96089501970895FC01918DFE
:10054000828D981761F0A28DAE0FBF2FB11D5D9601
:100550008C91928D9F5F9F73928F90E008958FEFA3
:100560009FEF0895FC01918D828D981731F0828D57
:10057000E80FF11D858D90E008958FEF9FEF0895AE
:10058000FC01918D228D892F90E0805C9F4F821B12
:1005900091098F73992708958FE092E00E94C0021D
:1005A00021E0892B09F420E0822F089580E090E07B
:1005B000892B29F00E94CC0281110C94000008952F
:1005C000FC01A48DA80FB92FB11DA35ABF4F2C91C8
:1005D000848D90E001968F739927848FA689B789BF
:1005E0002C93A089B1898C91837080648C93938DB6
:1005F000848D981306C00288F389E02D80818F7D59
:1006000080830895EF92FF920F931F93CF93DF9310
:10061000EC0181E0888F9B8D8C8D98131AC0E8893E
:10062000F989808185FF15C09FB7F894EE89FF890D
:100630006083E889F98980818370806480839FBFAB
:1006400081E090E0DF91CF911F910F91FF90EF90AB
:100650000895F62E0B8D10E00F5F1F4F0F731127BB
:10066000E02E8C8D8E110CC00FB607FCFACFE889F6
:10067000F989808185FFF5CFCE010E94E002F1CF9C
:10068000EB8DEC0FFD2FF11DE35AFF4FF0829FB76A
:10069000F8940B8FEA89FB8980818062CFCFCF935A
:1006A000DF93EC01888D8823B9F0AA89BB89E8899A
:1006B000F9898C9185FD03C0808186FD0DC00FB640
:1006C00007FCF7CF8C9185FFF2CF808185FFEDCFBE
:1006D000CE010E94E002E9CFDF91CF910895CF9340
:1006E000DF93EC0188819981009711F00E94EA0A5A
:1006F000198218821D821C821B821A82DF91CF917F
:100700000895FC0180819181009711F00C94EA0A10
:1007100008950F931F93CF93DF93EC018881998104
:10072000009759F02A813B812617370730F081E086
:10073000DF91CF911F910F9108958B016F5F7F4FD4
:100740000E94730B009759F0998388831B830A8357
:100750002C813D81232B59F7FC011082E8CF80E0EA
:10076000E7CFEF92FF920F931F93CF93DF93611523
:10077000710541F480E0DF91CF911F910F91FF90BF
:10078000EF90089541155105B1F07B01EC010C810A
:100790001D81040F151FB8010E948903882351F39E
:1007A000288139818C819D81B701820F931F0E941E
:1007B000390C1D830C8381E0DECFCF93DF93EC01F6
:1007C000FB0144815581608171810E94B1038111D7
:1007D00003C0CE010E946F03CE01DF91CF91089537
:1007E000EF92FF920F931F93CF93DF93EC017B0166
:1007F0008A01BA010E94890381110BC0CE010E94B7
:100800006F03CE01DF91CF911F910F91FF90EF9079
:1008100008951D830C83B701888199810E94390C4A
:10082000F0CFEF92FF920F931F93CF93DF93CDB74B
:10083000DEB762970FB6F894DEBF0FBECDBF8C0156
:10084000CB01F80111821082138212821582148268
:100850004AE09E012F5F3F4F7901B9010E94DC09F8
:10086000F70101900020E9F73197AF014E195F09B8
:10087000B701C8010E94F00362960FB6F894DEBF7C
:100880000FBECDBFDF91CF911F910F91FF90EF90E1
:1008900008950F931F93CF93DF93CDB7DEB768977B
:1008A0000FB6F894DEBF0FBECDBF8130910509F4BD
:1008B0007DC074F412E0892B91F068960FB6F8941D
:1008C000DEBF0FBECDBFDF91CF911F910F91089575
:1008D0008330910509F46CC015E0049771F7062F79
:1008E00061E0011160E0812F0E94B701602F70E08C
:1008F000CE0143960E941104612F70E0CE010D9647
:100900000E9411041A8219821C821B821E821D827F
:1009100048E050E06BE171E0CE0101960E94F003E7
:1009200018861F821A8619861C861B8669817A8121
:100930006115710531F04D815E81CE0107960E94EF
:10094000F003BE01635F7F4FCE0107960E94DD0377
:100950008C014CE050E064E271E00E94B10381112F
:1009600003C0C8010E946F03BE016D5E7F4FC801C6
:100970000E94DD03FC0144815581608171818FE01B
:1009800092E00E945A020E948702CE0107960E94BE
:100990008103CE0101960E948103CE010D960E9433
:1009A0008103CE0143960E94810387CF13E097CF46
:1009B00014E095CF1F920F920FB60F9211242F9330
:1009C0003F938F939F93AF93BF9380910702909132
:1009D0000802A0910902B0910A023091060223E0B8
:1009E000230F2D3758F50196A11DB11D2093060246
:1009F0008093070290930802A0930902B0930A0221
:100A000080910B0290910C02A0910D02B0910E0208
:100A10000196A11DB11D80930B0290930C02A0932F
:100A20000D02B0930E02BF91AF919F918F913F91B4
:100A30002F910F900FBE0F901F90189526E8230F4F
:100A40000296A11DB11DD2CF1F920F920FB60F9229
:100A500011242F933F934F935F936F937F938F93C3
:100A60009F93AF93BF93EF93FF938FE092E00E9429
:100A7000E002FF91EF91BF91AF919F918F917F9194
:100A80006F915F914F913F912F910F900FBE0F90FB
:100A90001F9018951F920F920FB60F9211242F934B
:100AA0008F939F93EF93FF93E0911F02F0912002A9
:100AB0008081E0912502F091260282FD1BC0908189
:100AC000809128028F5F8F7320912902821741F055
:100AD000E0912802F0E0E15FFD4F958F80932802BE
:100AE000FF91EF919F918F912F910F900FBE0F90DB
:100AF0001F9018958081F4CFCF93DF93CDB7DEB7E9
:100B00006B970FB6F894DEBF0FBECDBF789484B557
:100B1000826084BD84B5816084BD85B5826085BDF9
:100B200085B5816085BD80916E00816080936E0087
:100B30001092810080918100826080938100809179
:100B4000810081608093810080918000816080932A
:100B500080008091B10084608093B1008091B000EA
:100B600081608093B00080917A00846080937A00E5
:100B700080917A00826080937A0080917A0081600F
:100B800080937A0080917A00806880937A00109236
:100B9000C100E0911F02F091200282E08083E09189
:100BA0001B02F0911C021082E0911D02F0911E02C6
:100BB0008FEC808310922702E0912302F0912402AF
:100BC00086E08083E0912102F091220280818061A1
:100BD0008083E0912102F0912202808188608083ED
:100BE000E0912102F0912202808180688083E0916F
:100BF0002102F091220280818F7D808304E812E03F
:100C0000F8016491662341F08FE092E00E940203B4
:100C10000F5F1F4F892BA1F70E94870282E00E947D
:100C2000980183E00E94980184E00E94980185E089
:100C30000E94980162EEE62E61E0F62E10E000E0E0
:100C4000F70111927F0160E0C8010E9449040F5F23
:100C50001F4F04301105A1F710E000E068EE73E0CB
:100C600080E090E00E94280261E0C8010E944904EF
:100C700068EE73E080E090E00E94280260E0C80126
:100C80000E9449040F5F1F4F0430110539F760EDD2
:100C900077E080E090E00E94280282E090E090936C
:100CA000F7018093F6018FE190E09093F901809332
:100CB000F80188E290E09093E7018093E60180E2FA
:100CC0009EE49093E9018093E8018E010F5F1F4F2E
:100CD0006624639450E0852E50E0952E43E4742EF4
:100CE000E2E4F1E070927C0080917A00806480936D
:100CF0007A0080917A0086FDFCCF909178008091F7
:100D000079008927982789278193919321E0E23CF4
:100D1000F20741F72F923F924F925F92FF920F930B
:100D20001F93CF93DF93C2E4D1E0E4E0F2E0FF242D
:100D300040E46591759108811981970320010E03A4
:100D40004F1C10019E035F08300C411C5F1CF80310
:100D50005F08300C411C5F1C499259924A9549F733
:100D6000DF91CF911F910F91FF905F904F903F9037
:100D70002F9011242F923F926F927F92CF93DF9307
:100D8000ECECF0E04CE1A591BB27AA0FBB1FAE5BDA
:100D9000BE4F2D903C90C591DD27CC0FDD1FCE5B63
:100DA000DE4F688079807C926E92288239824A95E3
:100DB00051F7DF91CF917F906F903F902F902F92BE
:100DC0003F924F925F926F927F928F929F92AF92DB
:100DD000BF92CF92DF92EF92FF920F931F93CF9328
:100DE000DF93FF2408E0E02EC2E4D1E06880798040
:100DF0004A805B8075946794430155944794640CD2
:100E0000751C84189508AC80BD804E805F80B594B9
:100E1000A794650155944794A40CB51CC418D50833
:100E2000688579854A845B84759567958B015594AF
:100E30004794640D751D041915098C859D854E8494
:100E40005F84959587959C0155944794840D951DD5
:100E500024193509759467942301B594A7946A0CF5
:100E60007B1C4A185B08959487945401D594C794C9
:100E70008C0C9D1CAC18BD08759567956B019595FC
:100E80008795680F791FC81AD90A7594679413015A
:100E900075956795660E771E261A370A42E85AE559
:100EA0001503C001049FB00114039F09700D811D3B
:100EB0009F1D509F700D811D9F1D959487948401E7
:100EC000880E991E081B190B55944794D201D5948E
:100ED000C7944C0C5D1CAC19BD093503C001249F9F
:100EE000B00134039F09700D811D9F1D529F700D2D
:100EF000811D9F1DB594A7946501A80EB91EC81A3F
:100F0000D90A699279928992999249925992A992B1
:100F1000B9922992399209931993A993B993C992D5
:100F2000D992EA9409F062CF00E2C02EDD2401E0FC
:100F3000902EE8E6F0E000E1A02EBB2404E0E02ED5
:100F4000A2E4B1E0ED01CA0DDB1D8E2C2D903C908A
:100F50004880598035942794310155944794640C06
:100F6000751C24183508299239927C926E92AC0D2A
:100F7000BD1D1197EA94088119813C912E914591EC
:100F800055916591759115022001049F100114037C
:100F90005F08300C411C5F1C509F300C411C5F1CD3
:100FA00037023001269F200C311C461C571C36038B
:100FB0005F08300C411C5F1C729F300C411C5F1C91
:100FC0000E01CA19DB092880398035942794310134
:100FD000640C751C2418350868827982E001299216
:100FE000399217022001069F100116035F08300C8A
:100FF000411C5F1C709F300C411C5F1C350230018E
:10100000249F201831084608570834035F1C301805
:1010100041085F08529F301841085F080D01AA1966
:10102000BB092D903C90359427943101640C751CBC
:10103000241835087C926E92D0012D923C92129722
:10104000EA9409F098CFDE01AA19BB092D903C90D3
:101050004880598035942794310155944794640C05
:10106000751C24183508288239827C926E92C5013D
:1010700096958795C80FD91FC23CD90540F4DE016B
:10108000CA0DDB1DE82CEA19FB0934965FCF84FCFE
:1010900006C0EA2CE6945601CC0CDD1C51CFDF9142
:1010A000CF911F910F91FF90EF90DF90CF90BF9065
:1010B000AF909F908F907F906F905F904F903F90F8
:1010C0002F9011242F923F924F925F926F927F92B6
:1010D0008F929F92FF920F931F93CF93DF93A2E47F
:1010E000B1E0C2ECD1E0E2ECF1E04F01FF2440E2DC
:1010F0000D911D91980106C0F4010D911D91329141
:1011000022914F0111022001009F100198035F08F6
:10111000300C411C5F1C33023001229F200C311C1B
:10112000461C571CBA035F08300C411C5F1C11277A
:10113000552051F01CE0E52DE034F8F4440CEE1F8E
:10114000440CEE1F1A95F8CF442051F018E0E42D1E
:10115000E03498F4330CEE1F330CEE1F1A95F8CFE1
:10116000332051F014E0E32DE03438F4220CEE1F6C
:10117000220CEE1F1A95F8CFE22DFF27EC5FFE4FF1
:1011800004911295010F09934A9509F0B5CFDF91AB
:10119000CF911F910F91FF909F908F907F906F90B4
:1011A0005F904F903F902F90112424ECC22E21E0AD
:1011B000D22E32E0E32EF12CF60181916F011B86D5
:1011C0001A861D861C861F861E864AE0B80190E09E
:1011D0000E94E709F80101900020E9F73197AF017B
:1011E000401B510BB801CE010A960E94F003B701D3
:1011F000C8010E9411041F8A1E8A198E188E1B8E28
:101200001A8E4CE050E061E371E0CE0146960E94F8
:10121000F003198A188A1B8A1A8A1D8A1C8A6E8909
:101220007F896115710531F04A8D5B8DCE01409645
:101230000E94F003B801CE0140960E94DD035C01DC
:1012400042E050E06EE371E00E94B103811103C0FF
:10125000C5010E946F03BE01665F7F4FC5010E94FA
:10126000DD03FC0144815581608171818FE092E052
:101270000E945A020E948702CE0140960E9481037A
:10128000CE0146960E948103C8010E948103CE01CF
:101290000A960E948103A6EFB1E096EE492E91E0F6
:1012A000592E90E080E05601F1E0AF1AB1082D917F
:1012B0003C911197E216F306D4F012962D913C91D1
:1012C00013972E153F059CF0F501208130E0F201C7
:1012D00060817181AC014E515E4F26173707E0F1F6
:1012E0006281738162177307B8F1FA016082019617
:1012F0001496F4E04F0E511C84309105C1F62FEF87
:10130000E21AF20A80E2E816F10409F055CF82EE03
:10131000C82E81E0D82EF12CE12CF60161916F01ED
:10132000C7010E944904FFEFEF1AFF0A24E0E2160A
:10133000F10499F76AE070E080E090E00E942802F2
:101340008114910409F4CCCC0E94CC02882309F4C6
:10135000C5CC0E940000C2CCFA011082C8CFEFE0D9
:10136000F2E01382128288EE93E0A0E0B0E0848382
:101370009583A683B7838AE091E09183808385EC8F
:1013800090E09587848784EC90E09787868780EC4F
:1013900090E0918B808B81EC90E0938B828B82EC40
:1013A00090E0958B848B86EC90E0978B868B118EEA
:1013B000128E138E148E0895BB274A3031F4992370
:1013C00022F4BDE2909581959F4F0C94E809BB27CC
:1013D000FB015527AA27880F991FAA1FA41710F0F1
:1013E000A41B83955051B9F7A05DAA3308F0A95DFD
:1013F000A193009779F7B111B1931192CB010C949D
:10140000010ADC01FC01672F71917723E1F7329724
:1014100004C07C916D9370836291AE17BF07C8F3CF
:1014200008952F923F924F925F926F927F928F9288
:101430009F92AF92BF92CF92DF92EF92FF920F9363
:101440001F93CF93DF93CDB7DEB7CA1BDB0B0FB66D
:10145000F894DEBF0FBECDBF09942A88398848882A
:101460005F846E847D848C849B84AA84B984C884C0
:10147000DF80EE80FD800C811B81AA81B981CE0FB7
:10148000D11D0FB6F894DEBF0FBECDBFED0108959C
:10149000EE0FFF1F0590F491E02D09940F931F9319
:1014A000CF93DF938230910510F482E090E0E091D9
:1014B000AE02F091AF0230E020E0B0E0A0E0309763
:1014C00099F42115310509F44AC0281B390B243041
:1014D0003105D8F58A819B816115710589F1FB0180
:1014E00093838283FE0111C0408151810281138167
:1014F00048175907E0F04817590799F4109761F019
:1015000012960C93129713961C933296CF01DF918B
:10151000CF911F910F9108950093AE021093AF02E7
:10152000F4CF2115310551F04217530738F0A901C6
:10153000DB019A01BD01DF01F801C1CFEF01F9CF55
:101540009093AF028093AE02CDCFFE01E20FF31F66
:10155000819391932250310939832883D7CF2091E9
:10156000AC023091AD02232B41F420910201309165
:1015700003013093AD022093AC0220910001309121
:1015800001012115310541F42DB73EB74091040109
:1015900050910501241B350BE091AC02F091AD0296
:1015A000E217F307A0F42E1B3F0B2817390778F03A
:1015B000AC014E5F5F4F2417350748F04E0F5F1F99
:1015C0005093AD024093AC02819391939FCFF0E092
:1015D000E0E09CCFCF93DF930097E9F0FC013297D6
:1015E00013821282A091AE02B091AF02ED0130E001
:1015F00020E01097A1F420813181820F931F209168
:10160000AC023091AD022817390709F061C0F093A0
:10161000AD02E093AC02DF91CF910895EA01CE17BD
:10162000DF07E8F54A815B819E0141155105B1F75D
:10163000E901FB83EA8349915991C40FD51FEC1747
:10164000FD0761F4808191810296840F951FE90165
:1016500099838883828193819B838A83F0E0E0E091
:1016600012968D919C9113970097B9F52D913C910D
:101670001197CD010296820F931F2091AC023091F9
:10168000AD022817390739F6309751F51092AF029D
:101690001092AE02B093AD02A093AC02BCCFD38344
:1016A000C28340815181840F951FC817D90761F407
:1016B0004E5F5F4F88819981480F591F5183408346
:1016C0008A819B81938382832115310509F0B0CFF4
:1016D000F093AF02E093AE029ECFFD01DC01C0CFDC
:1016E00013821282D7CFB0E0A0E0E9E7FBE00C94D0
:1016F000130A8C01009751F4CB010E944E0A8C0111
:10170000C801CDB7DEB7E0E10C942F0AFC01E60F6B
:10171000F71F9C0122503109E217F30708F49DC01E
:10172000D901CD91DC911197C617D70798F0C53034
:10173000D10530F3CE0104978617970708F3C61B2F
:10174000D70B2297C193D1936D937C93CF010E94C5
:10175000EA0AD6CF5B01AC1ABD0A4C018C0E9D1E65
:10176000A091AE02B091AF02512C412CF12CE12C92
:10177000109731F58091AC029091AD0288159905D2
:1017800009F05CC04616570608F058C08091000169
:1017900090910101009741F48DB79EB740910401EB
:1017A00050910501841B950BE817F90708F055C007
:1017B000F093AD02E093AC02F90171836083A0CF96
:1017C0008D919C91119712966C90129713967C9024
:1017D0001397A815B90559F56C0142E0C40ED11C48
:1017E000CA14DB0420F1AC014A195B09DA01129634
:1017F000159780F06282738251834083D9016D9383
:101800007C93E114F10471F0D7011396FC93EE93ED
:10181000129776CF22968C0F9D1FF90191838083BA
:10182000F301EFCFF093AF02E093AE0269CF481619
:10183000590608F42C017D01D3019ACFCB010E94F7
:101840004E0A7C01009749F0AE01B8010E94300CAD
:10185000C8010E94EA0A870153CF10E000E050CF90
:10186000FB01DC0102C001900D9241505040D8F7BD
:101870000895FB01DC0101900D920020E1F708952D
:04188000F894FFCF0A
:101884000000B00280000000000002035A028F0230
:101894004F03C0029E02B2020D0A005472696767C8
:1018A40065722000206368616E67656420746F2030
:1018B400006668745F6C6F675F6F75745B005D3D95
:0218C400000022
:00000001FF
